:020000040800F2
:1000000020300020290200082D06000833050008D2
:1000100079050008EB0300086539000800000000BE
:100020000000000000000000000000000D38000883
:1000300095040008000000007B030008ED1D000887
:10004000430200084302000843020008430200087C
:10005000430200084302000843020008430200086C
:10006000430200084302000843020008430200085C
:10007000430200084302000843020008430200084C
:10008000430200084302000843020008430200083C
:10009000430200084302000843020008430200082C
:1000A000430200084302000843020008430200081C
:1000B000430200084302000843020008430200080C
:1000C00043020008430200084302000843020008FC
:1000D00043020008430200084302000843020008EC
:1000E00043020008430200084302000843020008DC
:1000F00043020008430200084302000843020008CC
:1001000043020008430200084302000843020008BB
:1001100043020008430200084302000843020008AB
:10012000430200084302000843020008430200089B
:10013000430200084302000843020008430200088B
:10014000430200084302000843020008430200087B
:10015000430200084302000843020008430200086B
:10016000430200084302000843020008430200085B
:10017000430200084302000843020008430200084B
:10018000430200084302000800F002F800F03CF8C7
:100190000AA090E8000C82448344AAF10107DA45E2
:1001A00001D100F031F8AFF2090EBAE80F0013F0F8
:1001B000010F18BFFB1A43F001031847503B000022
:1001C000703B0000103A24BF78C878C1FAD85207B3
:1001D00024BF30C830C144BF04680C6070470000C1
:1001E0000023002400250026103A28BF78C1FBD840
:1001F000520728BF30C148BF0B6070471FB503F0DE
:1002000081FC1FBD10B510BD00F04BF81146FFF783
:10021000F5FF03F0D3FB00F069F803B4FFF7F2FF3A
:1002200003BC00F071F80000094880470948004706
:10023000FEE7FEE7FEE7FEE7FEE7FEE7FEE7FEE796
:10024000FEE7FEE704480549054A064B70470000F3
:10025000FD38000889010008202A002020300020F5
:10026000202C0020202C002072B6704762B6704708
:10027000EFF3108072B6704780F31088704730BF7C
:10028000704720BF7047B0FA80F0704790FAA0F036
:10029000B0FA80F0704790FAA0F07047704770474E
:1002A0007047754600F02CF8AE4605006946534687
:1002B00020F00700854618B020B5FFF7C3FFBDE862
:1002C00020404FF000064FF000074FF000084FF0BD
:1002D000000B21F00701AC46ACE8C009ACE8C0094E
:1002E000ACE8C009ACE8C0098D46704710B50446BB
:1002F000AFF300802046BDE81040FFF78EBF00003E
:1003000000487047C029002001491820ABBEFEE715
:100310002600020070470000EFF3098141B1F1EEC1
:10032000101A40F8041D20ED200A24490A681060C4
:100330007047B0EC200A02C8E1EE101A20490A68A2
:10034000106070471F484FF0FF010170002080F3DC
:1003500009881D48016881F308881C484FF08051C6
:10036000016062B6FEE719484FF0805101607047A6
:1003700016484FF080510160704772B6EFF3098064
:1003800028B1203880E8F00F0C490968086000B5F2
:100390000F4880475DF804EB0E480F490A78027059
:1003A000064807490A680260106890E8F00F20309C
:1003B00080F309884EF0F40E62B67047E00000202A
:1003C000E400002022ED00E01800002004ED00E031
:1003D000951A00085E0000205F0000201FB56846E7
:1003E00003F0A0F9019804B010BD00BFFEE710B5FE
:1003F00000F020F800F01AF810BD000010B500243D
:1004000000BF00BFFFF734FF044600BF00BF10214C
:10041000054800F0B3F800BF00BF2046FFF72CFFEF
:1004200000BF00BF10BD0000100F002010B5FFF787
:10043000E5FF10BD10B500200249086000F00AF881
:1004400010BD000010000020014908607047000046
:100450001000002010B5FFF7C1FF044608480068EF
:1004600040F0807006490860002006494860084650
:10047000006840F0010008602046FFF7E5FF10BD6E
:10048000FCED00E0001000E0014948687047000002
:10049000001000E07047F0B50A4600210023002458
:1004A00000BF3DE0012505FA01F3156805EA0304E4
:1004B0009C4234D105684F000326BE40B543056019
:1004C00015794E00B5400668354305601579012D54
:1004D00002D01579022D16D185684F000326BE4043
:1004E000B543856055794E00B540866835438560D3
:1004F000456801268E40B5434560456896798E4033
:10050000B6B235434560C5684F000326BE40B543CB
:10051000C560D5794E00B540C6683543C560491CF5
:100520001029BFD3F0BD0183704742694A40426140
:10053000704700BFFEE700001CB50121202003F03A
:10054000E1F801208DF804004FF4C0600090032012
:100550008DF8050000208DF8060001208DF80700B9
:1005600069460448FFF797FF4FF4C0610148FFF761
:10057000DAFF1CBD0014024000BFFEE730B505469F
:100580000C4622460021284600F026F830BD000027
:100590000D480E4901600146416000218160C16043
:1005A000016141618161C16101620163C1624162B6
:1005B00007498163C1634FF480610164416401466E
:1005C000044A116070470000200F00204845415048
:1005D000680F0020140000202DE9F04105460B466D
:1005E00094460027002402E03F021F43641C042CB1
:1005F000FAD3604605F00306294646B1344603E0C7
:1006000001F8013B401E641C08B1042CF8D30A46D3
:1006100001E080C2001F0428FBD2114602E001F86D
:10062000013B401E0028FAD1BDE8F08170477047B9
:1006300010B50348006810B101480068804710BD3C
:100640003000002070B5044600F0AEF800204149AB
:1006500008704149087041490870414908604149A2
:100660000860414908704149087041490870414992
:10067000086041490860414908604148006858B134
:100680004048056845B13E48066803E0761E0020F4
:1006900028602D1D002EF9D100203B4908603B4900
:1006A00008603B4908603B4908603B4908603B499A
:1006B00008603B4908603B49087001F04DFF01F0BC
:1006C00087FF204601F09AFC208800B170BD2046CB
:1006D00001F0FAFC208800B1F8E7204601F000FDA7
:1006E000208800B1F2E7204601F07AFD208800B1B1
:1006F000ECE7204601F060FF208800B1E6E72046E5
:1007000002F026F8208800B1E0E7204602F056FA11
:10071000208800B1DAE7204601F09EFC208800B175
:10072000D4E7204602F06CFE208800B1CEE72046D8
:1007300002F08EF9208800B1C8E7204602F0C4FE1E
:10074000208800B1C2E701F085FBFFF770FF00BF12
:10075000BCE7000044000020450000207800002095
:10076000E0000020E40000205E0000205F00002088
:10077000600000206C000020700000207400002049
:10078000403B00083C3B00082400002028000020DB
:100790002C00002030000020340000203800002011
:1007A0003C000020A60000200648006806490968B1
:1007B00000EB8100054908600846006820F007004A
:1007C000086070473C3B0008403B000818000020D0
:1007D00010B500242D480078012800D010BD00BFBE
:1007E000FFF746FD044600BF2948007828B900BF3E
:1007F0002046FFF741FD00BFF0E725480078401E86
:100800002349087008460078002805DD00BF20460F
:10081000FFF732FD00BFE1E71E480078002805DD44
:1008200000BF2046FFF728FD00BFD7E701F080FE9C
:10083000194908700846007800EB4000174951F844
:100840002000174908600846006816490968884270
:1008500005D100BF2046FFF70FFD00BFBEE71048DF
:100860000068D0F88400401C0D490968C1F8840074
:100870000D480068401C0C490860FFF779FD00BF77
:100880002046FFF7F9FC00BF00BFA7E745000020A6
:1008900044000020780000205F0000206C2400202D
:1008A000E4000020E00000209C0000202DE9F04141
:1008B00004460E46154600271B480078002804DD34
:1008C00042F6E1602880BDE8F0811CB945F6C350CE
:1008D0002880F8E700BF00BFFFF7CAFC074600BF4B
:1008E00000BF1248206066600020206284F8250066
:1008F000A062402084F8240004F1080001F027FDE4
:10090000204601F055FC0A480088401C0849088030
:1009100000BF00BF3846FFF7AFFC00BF00BF00209C
:10092000288000BFCFE70000440000204D555458F8
:100930005C0000202DE9F04788B0054689469046C6
:100940001C46109E4FF0000A8A480078002805DDFA
:1009500046F2AE10308008B0BDE8F0871DB945F60C
:10096000C3503080F7E7B8F1000F03D0B8F5004F5F
:1009700002D100E000BF03E045F625603080EAE7E1
:1009800000BF7D492868884203D045F6C4503080B6
:10099000E1E70CB10020206000BF00BFFFF768FC5A
:1009A000824600BF00BF95F82500C0B973480068B3
:1009B00028627248006890F8370085F8240001200A
:1009C00085F825000CB1A86A206000BF00BF504622
:1009D000FFF752FC00BF00BF00203080BBE7674933
:1009E000286A0968884212D195F82500401C85F8CC
:1009F00025000CB1A86A206000BF00BF5046FFF779
:100A00003BFC00BF00BF45F282703080A3E708F4D2
:100A1000004050B100BF00BF5046FFF72DFC00BFA3
:100A200000BF46F2B010308095E7554800780028A6
:100A30000ADD00BF00BF5046FFF71EFC00BF00BF2D
:100A400046F66350308086E72F6A97F837004B49A7
:100A5000096891F8371088423ADD97F8360008287F
:100A60002AD2DFE800F004151E1F17162021384691
:100A700001F014FE4148006890F8370087F837000D
:100A800097F8370001F074FD384601F0C9FD1EE00B
:100A900000BF00BF3948006890F8370087F837007A
:100AA00015E000BF00BF00BF3448006890F8371061
:100AB000384601F029FC0AE000BF00BF5046FFF7AE
:100AC000DBFB00BF00BF46F62D60308043E700BF70
:100AD0004B4604222946684601F08EFB00BF00BF4A
:100AE0005046FFF7C9FB00BF00BF00F005F900BF8B
:100AF00000BFFFF7BDFB824600BF00BF1F48006874
:100B000090F8350030B101280CD002281AD0032803
:100B100021D110E01CB119480068006C2060002051
:100B200030801CE01CB115480068006C206046F263
:100B3000A910308013E00CB10020206047F2D920CA
:100B400030800CE01CB10D480068006C206045F658
:100B5000C250308003E046F62E60308000BF00BFF8
:100B600000BF00BF5046FFF787FB00BF00BF00BFBC
:100B7000F1E60000440000204D555458E0000020EC
:100B8000780000202DE9F84F0446884615464FF0BE
:100B9000000A55480078002804DD46F20E2028801F
:100BA000BDE8F88F1CB945F6C3502880F8E7B8F1C6
:100BB000000F03D0B8F5004F02D100E000BF03E002
:100BC00045F625602880EBE700BF48492068884249
:100BD00003D045F6C4502880E2E700BF00BFFFF70E
:100BE00047FB824600BF00BF4149206A096888422E
:100BF0000AD000BF00BF5046FFF73EFB00BF00BF5A
:100C000045F281702880CBE7FFF73EFC0746A762DC
:100C100094F82500401E84F8250094F8250000284B
:100C20000ADD00BF00BF5046FFF726FB00BF00BF34
:100C300045F283702880B3E704F10809B9F8080089
:100C400068B90020206284F8250000BF00BF50462C
:100C5000FFF712FB00BF00BF00202880A0E7244858
:100C6000006890F8370094F82410884219D0204882
:100C7000006801F013FD94F824001D49096881F80B
:100C800037001B49096891F8370001F071FC1848DA
:100C9000006801F0E5FC1648006890F83700154937
:100CA0000870D9F800008668266296F8370084F844
:100CB0002400012084F8250000231A4631462046EE
:100CC000009701F0B5FB00BF00BF5046FFF7D4FA14
:100CD00000BF00BF08F4004008B900F00DF8002084
:100CE000288000BF5CE70000440000204D555458A8
:100CF000E00000205E00002010B500241F480078AE
:100D0000002800DD10BD1E480078002800DDF9E74E
:100D100000BFFFF7ADFA044600BF01F009FC194916
:100D200008700846007800EB4000174951F8200091
:100D3000164908600846006815490968884205D1C7
:100D400000BF2046FFF798FA00BFDBE70F480068B6
:100D5000D0F88400401C0D490968C1F884000D4892
:100D60000068401C0B490860FFF7FDFA00BF2046F1
:100D7000FFF782FA00BF00BFC4E700004400002074
:100D8000780000205F0000206C240020E400002098
:100D9000E00000209C00002070B5044600251848A3
:100DA0000078002803DD46F66250208070BD1548AB
:100DB0000078012803D045F689602080F6E71248C4
:100DC0000078FA2803DB45F209202080EEE700BF17
:100DD00000BFFFF74DFA054600BF00BF0A48007884
:100DE000401C0949087001F087FC00BF00BF28467D
:100DF000FFF742FA00BF00BF0020208000BFD5E708
:100E000044000020450000207800002070B5044612
:100E1000002520480078002803DD46F66550208034
:100E200070BD1D480078012803D045F689602080F8
:100E3000F6E71A48007818B946F664502080EFE7C4
:100E400000BF00BFFFF714FA054600BF00BF1348FC
:100E50000078401E114908700846007800280ADD15
:100E600000BF00BF2846FFF707FA00BF00BF46F6E5
:100E700063502080D4E701F04DFC00BF00BF28463E
:100E8000FFF7FAF900BF00BFFFF736FF0020208010
:100E900000BFC5E744000020450000207800002086
:100EA00010B5044612480078E8B901F041FB114939
:100EB000087008460078104908700E48007800EB6A
:100EC00040000E4951F820000D49086008460068AE
:100ED0000C490860012006490870FFF733FA43F611
:100EE0009920208002E045F68A60208010BD000035
:100EF000450000205F0000205E0000206C240020E0
:100F0000E4000020E00000202DE9F04107464FF00A
:100F1000000800BF00BFFFF7ABF9804600BF00BF6D
:100F200000203B4908803B4908603B4908603B4939
:100F300008603B4908603B49088100BF00BF40464C
:100F4000FFF79AF900BF00BF00BF00BFFFF790F99D
:100F5000804600BF00BF3448046800BF00BF404661
:100F6000FFF78AF900BF00BF21E000BF00BFFFF715
:100F70007FF9804600BF00BF00206C34E063206032
:100F80002063A061A082E0826062A062FFF77CFA29
:100F900020626C3C04F158060020B081D4F8B040C7
:100FA00000BF00BF4046FFF767F900BF00BF002C3D
:100FB000DBD100BF00BFFFF75BF9804600BF00BF79
:100FC0001A48056800BF00BF4046FFF755F900BF4B
:100FD00000BF12E000BF00BFFFF74AF9804600BF24
:100FE00000BF05F120060020B081AD6900BF00BF41
:100FF0004046FFF741F900BF00BF002DEAD102F0E3
:101000000FF902F007FB00203880BDE8F0810000F6
:101010008600002098000020AC000020D0000020B6
:101020007000002060240020A00000206400002048
:10103000F8B5044600266946324800F00FFDBDF8B9
:10104000000018B1BDF800002080F8BD6A460021FC
:10105000022000F07BFDBDF8000018B1BDF80000D3
:101060002080F2E700BF00BFFFF702F9064600BF8D
:1010700000BF00202449086000BF00BF3046FFF7D2
:10108000FBF800BF00BF0025204800682049096820
:10109000884205D91D4800681D490968B0FBF1F573
:1010A00025B91A4800680A21B0FBF1F56A4600210B
:1010B000284600F04BFD6946124800F0B5F9BDF82E
:1010C000000018B1BDF800002080BEE700BF00BFDF
:1010D000FFF7CEF8064600BF00BF00200D490860AC
:1010E000094800680C49086001200C49087000BFDD
:1010F00000BF3046FFF7C0F800BF00BF00202080CF
:1011000000BFA2E70829002088000020703B0008EB
:10111000583B0008980000208C000020940000201C
:1011200010B50348006810B101480068804710BD41
:10113000340000202DE9FF4F85B004469046DDE9DC
:101140001995159F139E002002905C480078002896
:1011500005DD47F24A10288009B0BDE8F08F1CB9C0
:1011600047F2AD102880F7E7B8F1000F03D147F23E
:101170004F102880F0E71EB946F62F602880EBE775
:101180004F480068874203D246F630602880E3E784
:101190001498B84203D346F631602880DCE71298F1
:1011A000402803D346F273202880D5E712983F28C1
:1011B00006D14448844203D046F273202880CBE70E
:1011C000204601F00BFD0020288009F0010088B1C5
:1011D00009F0020070B1B3460020049007E000203F
:1011E000CBF800000BF1040B0498401C0490049809
:1011F000B842F4D3149806EB80000390CDE900794F
:1012000032464046039B089900F0C6FA8346C4F86C
:1012100028800898E06206982062129884F83700C7
:10122000C4F800B00398A060189860606662A76375
:10123000A4F83C904FF0000A08E0002104F170008F
:1012400040F82A100AF1010000F0FF0ABAF1000F7D
:10125000F3D004F15800169900F0A2FF204600F0E8
:1012600037F800BF00BFFFF703F8029000BF00BFD0
:1012700094F8370001F07CF9204601F0F1F920469E
:1012800001F062FC10480088401C0F4908800F489C
:101290000078012807D000BF00BF0298FEF7ECFFDE
:1012A00000BF00BF58E700BF00BF0298FEF7E4FF91
:1012B00000BF00BFFFF720FD00BF4DE74400002046
:1012C0006C3B0008A8230020A4000020450000205B
:1012D00010B504460348006818B120460149096862
:1012E000884710BD2400002070B504460D46002636
:1012F00043480078002803DD47F24E10288070BD77
:101300004048844203D147F24C102880F7E77CB96B
:1013100000BF00BFFEF7ACFF064600BF00BF3A4863
:10132000046800BF00BF3046FEF7A6FF00BF00BF45
:1013300000BF00BFFEF79CFF064600BF00BF94F849
:10134000360008282DD2DFE800F004090E10080A44
:101350000F11204601F0A2F92EE02DE000BF20463B
:1013600001F032FF28E000BF00BF00BF94F8340056
:10137000082810D2DFE800F004070508090A0B0668
:1013800000BF00BF08E000BF00BF00BF00BF204695
:1013900001F015F800E000BF00BF204601F014FF87
:1013A0000AE000BF00BF3046FEF766FF00BF00BF87
:1013B00046F62D602880A2E700BF04F1580000F037
:1013C000CDFE204600F024F8204601F0D5FB0F4862
:1013D0000088401E0D490880204601F0FFFBFF20D9
:1013E00084F8360000BF00BF3046FEF745FF00BF5F
:1013F00000BF00202880FFF77FFC00BF7FE70000D0
:1014000044000020A8230020E0000020A4000020C9
:1014100010B504460348006818B120460149096820
:10142000884710BD2800002070B504460D460026F0
:1014300015480078002803DD47F25510288070BD5C
:1014400000BF00BFFEF714FF064600BF00BF1CB17F
:101450000E48006884420AD100BF00BF3046FEF744
:101460000BFF00BF00BF47F257102880E7E700BF1F
:1014700000BF3046FEF700FF00BF00BF29462046F0
:1014800001F006FC00BFDAE744000020E000002085
:1014900010B504460348006818B1204601490968A0
:1014A000884710BD2C0000202DE9F04780460E46ED
:1014B00014461D464FF000096F480078002805DDEE
:1014C00046F2AE1028800020BDE8F0871EB1B6F5C8
:1014D000004F02D100E000BF04E045F625602880FF
:1014E0000020F1E700BF0CB10020206000BF00BF6A
:1014F000FEF7BEFE814600BF00BF60480068406C3A
:10150000A8B35E480068406C401E5C4909684864A6
:101510005A480068476C1CB158480068006C20604D
:10152000FEF7B2FF55490968096C401A534909682A
:10153000C1F8980051480068D0F89C004F490968EC
:10154000D1F89810884207D24C480068D0F898002B
:101550004A490968C1F89C0000BF00BF4846FEF731
:101560008BFE00BF00BF002028803846ACE7FFE7B5
:1015700006F4004058B100BF00BF4846FEF77CFEAD
:1015800000BF00BF46F2B010288000209CE73C4816
:10159000007800280BDD00BF00BF4846FEF76CFE58
:1015A00000BF00BF46F66350288000208CE743460A
:1015B00007220021084600F01FFE00BF00BF48467A
:1015C000FEF75AFE00BF00BFFFF796FB00BF00BF4B
:1015D000FEF74EFE814600BF00BF2848006890F825
:1015E000350020B1012826D0032834D12CE0FCB1ED
:1015F00022480068006C2060FEF746FF1F4909681A
:10160000096C401A1D490968C1F898001B48006818
:10161000D0F89C0019490968D1F89810884207D27F
:1016200016480068D0F8980014490968C1F89C0071
:101630000020288013E01CB110480068006C206076
:1016400046F2A91028800AE00CB10020206047F281
:10165000D920288003E046F62E60288000BF00BF16
:1016600006480068476C00BF00BF4846FEF704FE0E
:1016700000BF00BF384627E744000020E0000020FC
:10168000780000202DE9F04106460D4614461DB1B4
:10169000B5F5004F02D100E000BF05E045F625603A
:1016A00020800020BDE8F08100BFFEF7EDFE8046FF
:1016B000234642462946304601F076FB0746384627
:1016C000F0E700002DE9F04705460E4617461C4698
:1016D0004FF0000A2E480078002804DD47F2591028
:1016E0002080BDE8F0871EB946F2D5202080F8E7BB
:1016F0001FB946F2D5202080F3E700BF00BFFEF7F8
:10170000B7FD824600BF00BF0DB9224805682868B2
:1017100068B900BF00BF5046FEF7AEFD00BF00BF76
:1017200000203060386047F252102080D9E795F8E9
:101730003C0000F0010068B900BF00BF5046FEF752
:101740009BFD00BF00BF00203060386047F254109E
:101750002080C6E700BF00BF5046FEF78DFD00BFEA
:1017600000BF4FF00008D5F8249003E009F1040908
:1017700008F10108D9F800000028F7D0C6F8008069
:10178000A86BA0EB080038600020208000BFA8E70D
:1017900044000020E0000020F0B50446DDE90556D5
:1017A00002EB850020F007004FF0807C071F3846D1
:1017B000C7F800C0071F38463C60DFF834C2071F77
:1017C0003846C7F800C04FF0123C071F3846C7F82C
:1017D00000C04FF0033C071F3846C7F800C04FF069
:1017E000023C071F3846C7F800C0071F38463B6059
:1017F000071F384639604FF0113C071F3846C7F8BD
:1018000000C04FF0103C071F3846C7F800C04FF02B
:10181000093C071F3846C7F800C04FF0083C071FB7
:101820003846C7F800C04FF0073C071F3846C7F8D6
:1018300000C04FF0063C071F3846C7F800C04FF005
:10184000053C071F3846C7F800C04FF0043C071F8F
:101850003846C7F800C006F00407002F7ED04FF0CE
:10186000007C071F3846C7F800C0DFF888C1071F93
:101870003846C7F800C0DFF880C1071F3846C7F8F0
:1018800000C0DFF878C1071F3846C7F800C0DFF88E
:1018900070C1071F3846C7F800C0DFF868C1071FCE
:1018A0003846C7F800C0DFF860C1071F3846C7F8E0
:1018B00000C0DFF858C1071F3846C7F800C0DFF87E
:1018C00050C1071F3846C7F800C0DFF848C1071FDE
:1018D0003846C7F800C0DFF840C1071F3846C7F8D0
:1018E00000C0DFF838C1071F3846C7F800C0DFF86E
:1018F00030C1071F3846C7F800C0DFF828C1071FEE
:101900003846C7F800C0DFF820C1071F3846C7F8BF
:1019100000C0DFF818C1071F3846C7F800C04FF0F5
:10192000834C071F3846C7F800C0DFF804C1071F03
:101930003846C7F800C0DFF8FCC0071F3846C7F8B4
:1019400000C0DFF8F4C0071F3846C7F800C0DFF852
:10195000ECC0071F3846C7F800C000E047E0DFF8DA
:10196000E0C0071F3846C7F800C0DFF8D8C0071F1F
:101970003846C7F800C0DFF8D0C0071F3846C7F8A0
:1019800000C04FF0824C071F3846C7F800C0DFF890
:10199000BCC0071F3846C7F800C0DFF8B4C0071F37
:1019A0003846C7F800C0DFF8ACC0071F3846C7F894
:1019B00000C04FF0814C071F3846C7F800C0DFF861
:1019C00098C0071F3846C7F800C04FF0804C071F6B
:1019D0003846C7F800C04FF07E5C071F3846C7F88E
:1019E00000C04FF0000C071F3846C7F800C0F0BD1C
:1019F000912D00080000F8410000F0410000E8418E
:101A00000000E0410000D8410000D0410000C84182
:101A10000000C0410000B8410000B0410000A841F2
:101A20000000A04100009841000090410000884162
:101A30000000704100006041000050410000404142
:101A40000000304100002041000010410000E04053
:101A50000000C0400000A0400000404070B50546B6
:101A60000C460A480078002803DD47F25D1020800C
:101A700070BD0748854203D147F25B102080F7E72D
:101A80002146284601F072FA00BFF1E74400002029
:101A9000A823002010B52948006890F83C0000F009
:101AA000040020B1254909680868FEF735FC244880
:101AB000006890F83C0000F0040020B1204909685B
:101AC0000868FEF736FC1F48006810B11D48006822
:101AD0008047FEF7D9FC0446184800681849096891
:101AE000884215D015480068D0F88C00201A134998
:101AF0000968C1F8880011480068D0F890000F49C3
:101B00000968D1F8881008440C490968C1F89000A8
:101B10000B480068C0F88C4008480068D0F8A8005E
:101B200009490968884205D20748006803490968DD
:101B3000C1F8A80000200449086010BDE0000020A2
:101B4000E400002038000020740000202DE9F0415E
:101B500005460E461446002727480078002804DD75
:101B600047F275202080BDE8F081244800780028E5
:101B700003DD46F663502080F5E736B1022E05D02E
:101B8000042E0AD0082E09D101E000BF00BF1DB904
:101B900047F27E202080E6E704E003E045F625607A
:101BA0002080E0E700BF00BF00BFFEF761FB0746F3
:101BB00000BF00BF2346324629461148006801F0A5
:101BC000A5FA208838B100BF00BF3846FEF754FBA5
:101BD00000BF00BFC7E70A48006800F05FFD00BF14
:101BE00000BF3846FEF748FB00BF00BFFFF784F890
:101BF0000020208000BFB6E74400002078000020CD
:101C0000E00000202DE9FF5F05460E461746984686
:101C1000DDE90EA4002000905A480078002804DD79
:101C200047F275202080BDE8FF9F574800780028C4
:101C300003DD46F663502080F5E70AF00E0BBBF19A
:101C4000000F09D0BBF1020F07D0BBF1040F10D079
:101C5000BBF1080F0ED101E000BF00BFB8F1000FCB
:101C600006D12FB926B91DB947F27E202080DAE7C8
:101C700004E003E045F625602080D4E700BF2AF0A9
:101C80001E0008B1012000E0002003900398012805
:101C900003D145F625602080C5E7CAF30010029005
:101CA0000298C0B9B8F57A7F03D347F27B20208031
:101CB000B9E73B2F03DD47F27A202080B3E73B2EC4
:101CC00003DD47F279202080ADE7632D12DD47F276
:101CD00078202080A7E742F20F70864203DD47F2AA
:101CE000792020809FE7B5F57A7F03DB47F27820E3
:101CF000208098E72548D0F800904FF4FA70B0FBA8
:101D0000F9F0404400FB09F04FF47A71B0FBF1F1B7
:101D10004FF461606843C6EB061200EB8200384462
:101D200000FB09100190019838B300BF00BFFEF717
:101D30009FFA009000BF00BF23465A4614480199FD
:101D4000006801F0E3F9208838B100BF00BF0098B7
:101D5000FEF792FA00BF00BF65E70D48006800F08B
:101D60009DFC00BF00BF0098FEF786FA00BF00BFD1
:101D7000FEF7C2FF0020208002E047F27E20208094
:101D800000BF50E74400002078000020703B0008AE
:101D9000E000002008B500F01FF86A4600210A485C
:101DA000FFF770FC09480068401E084908600846B3
:101DB000006838B90648006808606A46002105488E
:101DC000FFF760FC08BD000024280020DC00002094
:101DD000D80000200829002010B50348006810B181
:101DE00001480068804710BD3C00002010B5002469
:101DF00000BF00BFFEF73CFA044600BF00BF084822
:101E00000078401C0649087000BF00BF2046FEF75E
:101E100033FA00BF00BFFFF7BDFFFEF7D9FC10BDCE
:101E20004400002001464A1E4FF0E0235A61084A50
:101E3000106820F07F4000BF10601A46126942F01F
:101E400005021A611A46126942F002021A617047CD
:101E500020ED00E0244A2549254A264A2649274AFA
:101E60002748284A284A294A294A2A482A482B4AE0
:101E70002B482C4A2C482D4A2D482E482E482F48B6
:101E80002F4A304A304A3148314A324A3248334880
:101E900033483448344835483548364A364A374A54
:101EA000374A384838483948394A3A4A3A4A3B4822
:101EB0003B483C483C493D483D4A3E4A3E4A3F4AF1
:101EC0003F4A404A404A4148414A424A42484348C0
:101ED000434A444A4448454A454A4648464800BF62
:101EE00000BF00BF70470000A43B0008083D000889
:101EF000A53B0008A63B0008A83B0008AC3B000837
:101F0000B03B0008AD3B0008D83B0008D93B0008B7
:101F1000DA3B0008DC3B0008DE3B0008E23B00083F
:101F2000E43B0008043C0008063C0008083C0008AC
:101F30000A3C00080C3C00080E3C0008103C00085D
:101F40003C3C00083D3C00083E3C0008403C00088A
:101F5000423C0008433C0008443C0008463C000862
:101F6000483C00084A3C00084C3C00084E3C000835
:101F7000503C0008803C0008813C0008823C00087E
:101F8000833C0008843C0008863C0008883C00082C
:101F9000B03C0008B13C0008B23C0008B33C00086B
:101FA000B43C0008B63C0008B83C0008BC3C000843
:101FB000BD3C0008BE3C0008BF3C0008C03C000817
:101FC000C13C0008C23C0008C33C0008C43C0008F7
:101FD000C63C0008C73C0008C83C0008CA3C0008D2
:101FE000CC3C0008CD3C0008D03C0008003D000877
:101FF000013D0008023D0008043D00080021034A9D
:102000001160034A118001807047000048000020E1
:102010004C000020002419E000BF00BFFEF728F9A3
:10202000044600BF00BF0A480068401C0849086019
:1020300008480068401C0749086000BF00BF2046F0
:10204000FEF71AF900BF00BFFEF7F2FAE4E700005E
:10205000400000208800002010B58AB0044600200F
:102060000E4908600B2000210591CDE90704069177
:1020700008460B4909680B4A12680B4B1B68CDE9EF
:102080000132CDE903103F200023084A08A1009047
:102090000C48FFF74FF80AB010BD000040000020C8
:1020A000183B0008143B0008103B000815200008EE
:1020B00075432F4F532D4949492049646C6520547D
:1020C00061736B00A82300200021034A1160034ABA
:1020D0001180018070470000500000205400002053
:1020E00070B501461A4D2D681DB945F21E750D805B
:1020F00070BD184D2D881DB945F21D750D80F7E78F
:10210000134D28682A681032124D2D886D1EACB20E
:10211000002308E00260002545600581C56010309D
:1021200010325D1CABB2A342F4DB002505604560B4
:102130000581C560064D2D68074E3560054D2D881B
:10214000B5800025F58035810D8000BFD0E7000007
:10215000503B0008483B00086024002010B50146B1
:1021600048894B89002B17DD0A680C4B1B681360EC
:102170000A4C4B6823602346DB884C891B1B074CA9
:10218000E38023469B884C892344044CA38000238E
:102190004B818B810B604B6010BD000060240020E0
:1021A000018100224281828102604260704700000A
:1021B00009A1C161002141610849096811B90021E3
:1021C000816105E005490968816104490968486140
:1021D00002490860704700002000000058000020FD
:1021E0000021034A1160034A1180018070470000FA
:1021F000580000205C0000202DE9F04105460C4607
:1022000016461F461548006880F8346000201349C0
:10221000096881F8350039461048006800F07EFCF6
:102220006CB104F10808EC60012229460B480068F3
:1022300000F016F82946404600F08EF806E000202F
:1022400006490968C88705490968086303480168A1
:10225000204600F019F8BDE8F0810000E000002001
:1022600010B5C287016300230AE000244C600C60B3
:102270000C614C610C83CC61886020315C1CA3B282
:102280009342F2DB10BD000030B548B14568C1F89B
:10229000B45000F10804226893681D6AC56113E018
:1022A00091F83450022D02D0072D08D103E007A584
:1022B000C1F8B45007E007A5C1F8B45003E008A581
:1022C000C1F8B45000BF00BF30BD00005461736B53
:1022D000205100005461736B2053656D00000000B5
:1022E0002000000030B507A5C1F8B45000F1080483
:1022F00022681AB193681D6AC56101E001A5C56134
:1023000030BD0000200000002DE9F04304460F46D8
:1023100084F83770256BB4F83E8013E0D5F80C9044
:1023200009F108063089012807D92946304600F00E
:102330005EF82946304600F00FF82035A8F101007C
:102340001FFA80F8B8F1000FE8D1BDE8F083002152
:102350000160416001817047F0B58E6896F8375092
:1023600007893FB90127078100274F600F6001608F
:10237000416023E007897F1C0781026806E09468BA
:1023800094F83770AF4200DD02E05268002AF6D1BF
:1023900000BF32B900274F6043680B60596041604D
:1023A0000CE017682FB9116000270F604A600160C8
:1023B00004E013680B604A6059601160F0BD2DE9BC
:1023C000F0410446256BE68F0AE0D5F80C8008F151
:1023D00008072946384600F00AF82035701E86B2F4
:1023E000002EF2DC0020E0872063BDE8F08110B50C
:1023F0000489012C03D100240460446011E00C68BE
:1024000024B94A680024146002600AE04C6824B9C8
:102410000B6800245C60436003E00B684A685A6004
:1024200013600489641E048100244C600C6010BD9C
:102430002DE9F84306460C4617469846089D94F841
:10244000360008285BD2DFE800F00405080906071B
:10245000323300BF00BF00BF52E000BF94F8340029
:10246000032807D143463A4621463046009500F0FE
:102470004AF803E02765A4F85480256436B1204665
:10248000FFF79DFF21463046FFF72CFF94F83600FA
:10249000032802D1204600F097FE204600F0AAF85B
:1024A00000203434A070607004F8340928E000BFC4
:1024B00094F83400032807D143463A462146304673
:1024C000009500F020F803E02765A4F85480256407
:1024D00036B12046FFF773FF21463046FFF702FF73
:1024E00094F83600072802D1204600F06DFE042043
:1024F0003434A0700020607004F8340900E000BF9C
:1025000000BFBDE8F883F0B50446059E086BCD8F8B
:102510000AE0C768A74204D1046142610383C6612F
:1025200004E020306F1EBDB2002DF2DC00BFF0BD14
:1025300070B50025074C03E005F12000C5B2241D4D
:1025400020680028F8D02068FDF79DFE2844C5B219
:10255000284670BD1C000020002004E00021034A32
:1025600042F82010401C0228F8D370471C000020BD
:1025700030B5420900F01F030121C3F11F04A1403F
:10258000034C54F822400C43014D45F8224030BD25
:102590001C00002030B5420900F01F030121C3F1E7
:1025A0001F04A140034C54F822408C43014D45F8D0
:1025B000224030BD1C0000200021034A1160034A64
:1025C0001180018070470000640000206800002036
:1025D00000210AE001EB4102054B03EB82000022DF
:1025E0000281026042604A1CD1B24029F2D3704796
:1025F0006C24002010B5044694F83700FFF7B8FFAC
:1026000094F8370005490978884203D1204600F044
:1026100027F802E0204600F003F810BD5E0000201D
:1026200010B590F8373003EB43030C4C04EB8301F7
:102630000B893BB901230B810023C3600361086050
:10264000486009E00B895B1C0B810B68C3600023A9
:1026500003610A681061086010BD00006C2400204E
:1026600010B590F8373003EB43030B4C04EB8301B8
:102670000B893BB901230B810023C3600361086010
:10268000486008E00B895B1C0B810023C3604A682B
:102690000261D060486010BD6C2400202DE9F0413B
:1026A000054695F8370000EB4000124901EB800425
:1026B0002F69EE6887B946B90020208120606060EC
:1026C00095F83700FFF766FF0EE02089401E208155
:1026D00000203061266007E02089401E2081FE60D6
:1026E0000EB9676000E0376100202861E860BDE84E
:1026F000F08100006C24002010B504480078012807
:1027000003D1FDF7C1FE0249086010BD780000202A
:102710006C00002010B50A48007880B9FDF7B4FEBF
:1027200008490968441A08480068A04201D20648CE
:10273000046006480068A04201D20448046010BD4D
:10274000780000206C000020700000207400002041
:102750000021034A1160034A118001807047000084
:102760007C0000208000002086B00020009006E061
:10277000A8490968480001AA0021FFF7E7F9A6481F
:1027800000780128F4D101A8FEF7BEFB0027A3487A
:102790000068A0490968884205D9A04800689D4999
:1027A0000968B0FBF1F727B99C4800680A21B0FB23
:1027B000F1F72EE1FDF768FE804600BF00BFFDF790
:1027C00057FD009000BF00BF95480068954908601C
:1027D00000209349086000BF00BF0098FDF74CFD42
:1027E00000BF00BF904800688E490968884248D9F8
:1027F0008D4800688D49884205D242F210700390DE
:102800000120029023E0884800688949884205D267
:102810004FF47A7003900A20029018E08248006812
:102820008449884203D26420039002900FE07E48DE
:1028300000688149884205D20A2003904FF47A70DB
:10284000029004E00120039042F21070029076485A
:1028500001680298B1FBF0FA72490398096848438D
:10286000B0FBFAF042F21071081A744908807448FB
:1028700000880988884208DA704800887049088012
:1028800003E042F210706D490880FEF749FC002514
:1028900000BF00BFFDF7ECFC009000BF00BF69481F
:1028A000046800BF00BF0098FDF7E6FC00BF00BF52
:1028B00026E000BF00BFFDF7DBFC009000BF00BFBB
:1028C00054F8900F6060002044F8900900BF00BFEA
:1028D0000098FDF7D1FC00BF00BFD4F89400054478
:1028E00000BF00BFFDF7C4FC009000BF00BFD4F8DC
:1028F000B04000BF00BF0098FDF7BEFC00BF00BFA6
:10290000002CD6D145B34948854205D242F2107019
:1029100005904FF0010B1BE04548854205D24FF46E
:102920007A7005904FF00A0B12E04248854203D2BC
:102930006420059083460BE03F48854204D20A207C
:1029400005904FF47A7B03E00120059042F2107B62
:10295000B5FBFBF0049003E00020059001200490FB
:1029600000BF00BFFDF784FC009000BF00BF3548EA
:10297000046800BF00BF0098FDF77EFC00BF00BFE9
:102980002BE0D4F89400059948430499B0FBF1F08A
:1029900086B242F21070864200D90646A4F88060E2
:1029A000B4F88200B04201DAA4F8826001AB04F10D
:1029B000A002111D2046FEF785FE00BF00BFFDF7F7
:1029C00057FC009000BF00BFD4F8B04000BF00BF6C
:1029D0000098FDF751FC00BF00BF002CD1D11A4870
:1029E0000078012805D100201749087001A8FEF7DA
:1029F0008BFAFDF749FDA0EB08091448006848452B
:102A000002D21248C0F8009001AA00213846FFF710
:102A10009DF8CFE6583B000894000020703B00086A
:102A200088000020900000208C000020801A060002
:102A300000093D00005A62020084D717840000207C
:102A400086000020A00000208200002098000020C6
:102A500010B58AB0044600201F4908601F4908606D
:102A60001F4908601F4908701F4908701F48006807
:102A700020B946F62B6020800AB010BD1C480068C3
:102A80001C490968884203D246F62C602080F3E78F
:102A9000194800783F2803D346F62A602080EBE7E8
:102AA000032000210591CDE907040691084610494D
:102AB0000968124A12680D4B1B68CDE90132CDE955
:102AC00003100D48007800230D4A0EA10090124813
:102AD000FEF730FB00BFCFE7880000209000002009
:102AE0008C00002094000020820000205C3B000845
:102AF000643B00086C3B0008543B0008603B000846
:102B00006927000875432F4F532D494949205374B5
:102B10006174205461736B006C27002070B504460B
:102B20000D4645B12A462146064800F0ABFA03207F
:102B300084F8360002E0022084F836002046FFF7D1
:102B4000ADFD70BDB80000200021C0F8AC100949EF
:102B5000096819B90021C0F8B01007E005490968F3
:102B6000C0F8B01003490968C1F8AC000149086019
:102B700070470000A0000020D0F8AC20D0F8B010C2
:102B80004AB90D4B196011B10023C1F8AC300023D4
:102B9000C0F8B0300FE029B90023C2F8B030C0F857
:102BA000AC3008E0C2F8B010C1F8AC200023C0F887
:102BB000B030C0F8AC307047A00000200021044ABB
:102BC0001160044A1180044A1160018070470000BE
:102BD000A0000020A40000209C00002070B5044646
:102BE00000202060A0606060E06020616061A06102
:102BF000E06124A0206200206062A062E0622064A4
:102C00002065A4F85400002104F15800FFF7C8FA29
:102C10000020A066E0666067A4F87C00A06700253D
:102C200006E0002104F1700040F82510681CC5B2D0
:102C3000002DF6D00020343420616066A06660600C
:102C400084F84A002067E06620816061A061A4F8F2
:102C50004C00A4F84E0020656065FDF715FC0646A3
:102C6000A6650020E065606720706070A07040205D
:102C7000E0700020A067E06704A0C4F88000343C46
:102C800070BD00003F5461736B0000002000000025
:102C900070B504460D46002600BF00BFFDF7E8FAF8
:102CA000064600BF00BF0020288094F836000828A0
:102CB0005ED2DFE800F0040506071227394B00BF9B
:102CC00000BF00BF00BF00BF3046FDF7D5FA00BF10
:102CD00000BF47F25310288055E014F87E0F401EC5
:102CE000207014F87E0928B9002084F836002046A8
:102CF000FFF780FC00BF00BF3046FDF7BDFA00BF04
:102D000000BF40E014F87E0F401E207014F87E09CA
:102D100010B9012084F8360000BF00BF3046FDF72F
:102D2000ABFA00BF00BF2EE014F87E0F401E2070EB
:102D300014F87E0910B9022084F8360000BF00BFE5
:102D40003046FDF799FA00BF00BF1CE014F87E0F73
:102D5000401E207014F87E0910B9032084F8360054
:102D600000BF00BF3046FDF787FA00BF00BF0AE092
:102D700000BF00BF3046FDF77FFA00BF00BF46F638
:102D80002D60288070BD00BFFDF7B6FF00BFF9E7DA
:102D900008B504480068FEF77BFB69460020FEF793
:102DA000A3FA08BDE00000202DE9F8430446884658
:102DB00017461D464FF0000900BF00BFFDF758FA47
:102DC000814600BF00BF0CB9674804682764002033
:102DD000288094F83600082876D2DFE800F0040551
:102DE00050510607525300BF00BF00BF0420012806
:102DF00004D0022813D0042833D122E0606CFF28CD
:102E00000CD100BF00BF4846FDF736FA00BF00BF37
:102E100046F6C55028800020BDE8F88322E04FF632
:102E2000FF71606C88420BD100BF00BF4846FDF7C0
:102E300023FA00BF00BF46F6C55028800020EBE70C
:102E400010E0606C401C58B900BF00BF4846FDF759
:102E500013FA00BF00BF46F6C55028800020DBE70C
:102E600000E000BF00BF606C401C6064666C00BF87
:102E700000BF4846FDF700FA00BF00BF71E000BF89
:102E800000BF00BF94F83400072815D100231A466C
:102E9000214618460097FFF7CBFA666C00BF00BFCB
:102EA0004846FDF7E9F900BF00BF08F400400028DC
:102EB0004AD1FDF721FF47E00420012805D0022870
:102EC00013D0042833D122E03FE0606CFF280BD1FF
:102ED00000BF00BF4846FDF7CFF900BF00BF46F670
:102EE000C5502880002097E722E04FF6FF71606C04
:102EF00088420BD100BF00BF4846FDF7BDF900BFB7
:102F000000BF46F6C5502880002085E710E0606CC1
:102F1000401C58B900BF00BF4846FDF7ADF900BFDF
:102F200000BF46F6C5502880002075E700E000BFCE
:102F300000BF606C401C6064666C00BF00BF484608
:102F4000FDF79AF900BF00BF0BE000BF00BF484685
:102F5000FDF792F900BF00BF46F62D6028800026DD
:102F600000BF00BF304657E7E000002070B50446C0
:102F70000D46002600BF00BFFDF77AF9064600BFE8
:102F800000BF0CB93D4804683C48006884420ED13B
:102F90003B48007800280ADD00BF00BF3046FDF73F
:102FA0006BF900BF00BF46F66350288070BD00205B
:102FB000288094F83600082850D2DFE800F0041585
:102FC00023313F404142042084F83600012084F838
:102FD0007E002046FFF762FB00BF00BF3046FDF7D2
:102FE0004BF900BF00BF44E0052084F83600012003
:102FF00084F87E0000BF00BF3046FDF73DF900BFFA
:1030000000BF36E0062084F83600012084F87E00F8
:1030100000BF00BF3046FDF72FF900BF00BF28E01A
:10302000072084F83600012084F87E0000BF00BF2E
:103030003046FDF721F900BF00BF1AE000BF00BF16
:1030400000BF94F87E00401C84F87E0000BF00BFE3
:103050003046FDF711F900BF00BF0AE000BF00BF16
:103060003046FDF709F900BF00BF46F62D60288005
:103070009CE700BFFDF740FE00BF97E7E00000209F
:103080007800002070B51546066846B98D640026A4
:103090004E618E61C86101600126868033E004685C
:1030A00002682B4624E0966C9E421DD396696EB949
:1030B0008B6400268E614A61C861966CF61A96642C
:1030C000916101608688761C86800CE094698B642F
:1030D0008C614A61C861966CF61A9664916161616F
:1030E0008688761C868070BD966C9B1B1446526940
:1030F000002AD8D18B648C6100264E61C861616161
:103100008688761C868000BFEDE700002DE9F0413F
:1031100004460D4690461F46B8F1040F0ED12848CC
:1031200000682E1A16F5803F01D8002E3CD10020F1
:10313000A06447F27E203880BDE8F081B8F1080F26
:1031400029D11F49E06C0968081AA84205D92E4602
:103150001B4800682844E06426E01949E06C0968CF
:10316000081A2E1A16F5803F00D886B91449E06C6B
:103170000968081AB0FBF5F005FB0050E16C084443
:10318000E0640020A06447F27E203880D4E7E06C41
:103190002844E06408E00DB12E4605E00020A0645C
:1031A00047F27E203880C7E7012084F83600324697
:1031B00021460448FFF766FF0020388000BFBBE7C8
:1031C000A8000020B000002030B5C26983694169C1
:1031D000ABB929B90024146094808464C4611EE0F2
:1031E00000248C618C6C856C2C448C6411609488F8
:1031F000641E9480002444618464C4610FE05961BA
:1032000021B18B618C6C856C2C448C6400248461AE
:103210009488641E9480002444618464C46130BD39
:10322000704700002DE9F0474FF0000900BF00BFD4
:10323000FDF71EF8814600BF00BFFDF725F90646E1
:1032400000271D4D2C683CB3A06C401EA0641FE0FD
:10325000781C87B294F83600012806D1002084F843
:1032600036002046FFF7C6F906E094F83600052838
:1032700002D1042084F83600606928602C6814B9F3
:103280000020A88007E0A888401EA8800020A06138
:10329000A06C0028DCD000BFEF80FDF7F5F8A0EBB4
:1032A000060800BF00BF4846FCF7E6FF00BF00BFAE
:1032B0004046BDE8F0870000B00000202DE9F0474F
:1032C0004FF0000900BF00BFFCF7D2FF814600BFEE
:1032D00000BFFDF7D9F8064600272C4D2C68002CBE
:1032E00045D0A06C401EA0643DE0781C87B294F8E5
:1032F0003600032815D100202065A4F85400FDF7FE
:10330000C3F820642046FFF75AF82046FFF772F909
:1033100000203434A07003206070002004F83409C9
:1033200015E094F83600072811D100202065A4F894
:103330005400FDF7A9F820642046FFF740F8042068
:103340003434A07003206070002004F834096069F0
:1033500028602C6814B90020A88007E0A888401EC7
:10336000A8800020A061A06C0028BED000BFEF8024
:10337000FDF78AF8A0EB060800BF00BF4846FCF73F
:103380007BFF00BF00BF4046BDE8F087B8000020CB
:103390001CB500272CE001AB6A4600210846FEF769
:1033A00083F8BDF8040018BB1248007801281FD12B
:1033B00000BF00BFFCF75CFF074600BF00BF0E4820
:1033C0000068401C0C49086000BF00BF3846FCF78D
:1033D00053FF00BF00BFFFF725FF0646FFF76EFF54
:1033E0000546741905480068A04201D203480460EC
:1033F000D1E7000045000020A8000020AC0000201C
:1034000010B58AB0044600202049086020490860B1
:10341000204908601E498880C8801E498880C8806D
:103420001D48006820B947F2122020800AB010BD64
:103430001A4800681A490968884203D247F21320E3
:103440002080F3E7174800783F2803D347F2112084
:103450002080EBE70B2000210591CDE907040691C0
:1034600008460E490A68104909680B4B1B68CDE9EC
:103470000131CDE903200B48007800230B4A0CA151
:1034800000901048FDF756FE00BFCFE7A8000020CF
:10349000B0000020B8000020783B0008803B000806
:1034A0006C3B0008743B00087C3B0008913300082B
:1034B00075432F4F532D494949205469636B20545C
:1034C00061736B002428002010B58AB004460020E8
:1034D0002F4908602F4908602F4908802F4800684D
:1034E00040B12F4800682D490968B0FBF1F02D4923
:1034F000086006E02A4800680A21B0FBF1F029497B
:1035000008602848006828490860002027490860AA
:1035100027490860224627A12A48FDF7C7F92088D5
:1035200008B10AB010BD2848006818B947F2473002
:103530002080F6E72548006825490968884203D2BB
:1035400047F248302080ECE7224800783F2803D338
:1035500047F246302080E4E70B20002105910A461F
:10356000CDE907040691194800681B490968164B04
:103570001B68CDE90131CDE903021648007800232C
:10358000164A17A100901C48FDF7D4FD00BFC8E7FC
:10359000C0000020C8000020C40000208C3B0008B0
:1035A000703B0008D8000020DC000020D400002080
:1035B000D00000204F5320546D72204D75746578F3
:1035C00000000000DC280020903B0008983B000829
:1035D0006C3B0008883B0008943B00081936000843
:1035E00075432F4F532D4949492054696D65722009
:1035F0005461736B00000000082900200EB502A87A
:1036000001AB0022114600900148FDF793F90EBD71
:10361000DC280020704700001CB53FE001AB6A4683
:1036200000210846FDF740FFFFF7E8FFFCF72CFFFD
:1036300006461B480068401C194908601948046880
:103640001FE001A8FDF7A8FBD4F81080A069401E78
:10365000A061A06980B9A08C022802D1206AA06173
:1036600005E0204600F022F8032084F82600A56833
:1036700015B12046E168A847444601A8FDF7C6FBFE
:1036800000BF002CDDD1FCF7FFFE871B00F030F8F7
:1036900005480068B84201D203480760BEE7000051
:1036A000D4000020C8000020D000002010B50E4B30
:1036B0001B68834206D101690B4B196039B10023A5
:1036C0004B6104E0416902690A6102B15161012361
:1036D00080F82630002303614361044B1B885B1E86
:1036E000024C238010BD0000C8000020C400002050
:1036F00008B56A4600210248FDF744FA08BD0000FB
:10370000DC28002029B1064A12680243044B1A60E3
:1037100004E0034A12688243014B1A6070470000BC
:1037200030380240F0B50021002200240225002696
:103730000223324F3F6807F00C0121B1042905D064
:10374000082937D105E02E4F076036E02D4F07607E
:1037500033E02A4F3F1F3F68C7F38056274F3F1F74
:103760003F6807F03F036EB1264FB7FBF3F7DFF872
:103770008CC0ACF1040CDCF800C0CCF3881C07FB57
:103780000CF40CE01E4FB7FBF3F7DFF870C0ACF1A0
:10379000040CDCF800C0CCF3881C07FB0CF4174FBA
:1037A0003F1F3F68C7F301477F1C7D00B4FBF5F75F
:1037B000076002E0124F076000BF00BF0F4F3F6875
:1037C00007F0F0010909104F7A5C0768D74047609D
:1037D0000A4F3F6807F4E051890A0B4F7A5C47684B
:1037E000D7408760054F3F6807F46041490B064F9B
:1037F0007A5C4768D740C760F0BD000008380240D7
:103800000024F40000127A0000000020704700003D
:103810000CB50020019000903448006840F48030DE
:103820003249086000BF3148006800F40030009061
:103830000198401C0190009818B90198B0F5A04F6C
:10384000F1D12A48006800F4003010B10120009046
:1038500001E0002000900098012846D12348403024
:10386000006840F0805021494031086020480068DD
:1038700040F440401E4908601C48083000681B495D
:10388000083108600846006840F4004008600846B7
:10389000006840F4A05008601648091F0860081F1F
:1038A000006840F08070091F086000BF0F48006882
:1038B00000F000700028F9D040F205700E49086051
:1038C0000A480830006820F0030008490831086001
:1038D0000846006840F00200086000BF0348083056
:1038E000006800F00C000828F8D10CBD0038024038
:1038F0000070004008544007003C024010B51548D5
:10390000006840F47000134908601348006840F0F4
:1039100001001149086000200F49083108600E4875
:1039200000680E4908400C4908600D48091D0860F0
:10393000081F006820F48020091F08600020064945
:103940000C310860FFF764FF4FF0006001498039D7
:10395000086010BD88ED00E000380240FFFFF6FE71
:103960001030002400BFFEE70EB500BF0DE04FF49D
:1039700000710648FCF7D9FD02A80021C8230A46B9
:10398000CDE900100846FEF73DF9F0E700140240CB
:103990000EB500BF0EE04FF480610748FCF7C5FD8F
:1039A00002A800214FF4FA730A46CDE90010084638
:1039B000FEF728F9EFE70000001402408AB009A8DA
:1039C000FCF740FE09A8032100220592CDE906215B
:1039D000089010464FF400713322094BCDE90132B3
:1039E000CDE9031003200023064A07A100900948EF
:1039F000FDF7A0FB09A8FDF753FA00BFFEE70000A2
:103A0000A0010020193A0008737461727420746177
:103A1000736B0000E8000020F0B58BB0074600266D
:103A2000FCF78AFDFCF7E3FCFCF7D8FC04462748CA
:103A30000068B4FBF0F52846FEF7F4F9FCF7A8FDA2
:103A40000AA8FDF7F5FA00BF00BFFCF711FC064617
:103A500000BF00BF0AA8032100220592CDE906217C
:103A60000890104680210C22194BCDE90132CDE996
:103A7000031004200023174A17A100901948FDF7EE
:103A800059FB0AA8032100220592CDE906210890DE
:103A9000104680210C22144BCDE90132CDE90310F0
:103AA00005200023114A12A100901448FDF742FBA3
:103AB0000AA91348FFF75AFA00BF00BF3046FCF7C7
:103AC000DBFB00BF00BF0BB0F0BD0000703B000887
:103AD000580A0020693900086C65643120746173EC
:103AE0006B000000A0090020100D00209139000893
:103AF0006C656432207461736B000000580C002008
:103B0000E80000204FF04070E1EE100A704700001E
:103B1000681300200C00000080000000000200007C
:103B20000000000000000000000000000000000095
:103B300000000000000000000000000068150020E8
:103B40008000000000020000640000004006000049
:103B5000681700200A0000000A000000A81D0020CD
:103B60000C00000080000000000200004000000087
:103B7000E803000001000000A81F00200C00000066
:103B800080000000000200000B0000006400000044
:103B9000A82100200C0000008000000000020000AE
:103BA00040100000010101007856341201010000AC
:103BB0000000000000000000000000000000000005
:103BC00000000000000000000000000000000000F5
:103BD00000000000000000000101010028000400B6
:103BE00000000000000000000000000000000000D5
:103BF00000000000000000000000000000000000C5
:103C00000000000001002000010010000C00100066
:103C100000000000000000000000000000000000A4
:103C20000000000000000000000000000000000094
:103C30000000000000000000000000000101010081
:103C40002C00010020000C002000400008000400AF
:103C50000000000000000000000000000000000064
:103C60000000000000000000000000000000000054
:103C70000000000000000000000000000000000044
:103C80000101010130000000000000000000000000
:103C90000000000000000000000000000000000024
:103CA0000000000000000000000000000000000014
:103CB0000101010128000C000003000004010101C2
:103CC0000101010101000101B8000800010100002B
:103CD00000000000000000000000000000000000E4
:103CE00000000000000000000000000000000000D4
:103CF00000000000000000000000000000000000C4
:103D000001013000C1760000CD0600002C3D000806
:103D100000000020E8000000C4010008143E000874
:103D2000E8000020382F0000E0010008000000003B
:103D30000102030401020304060708090000000051
:103D40000000000000000000000000000000000073
:103D50000000000000000000000000000000000063
:103D60000000000000000000000000000000000053
:103D70000000000000000000000000000000000043
:103D80000000000000000000000000000000000033
:103D90000000000000000000000000000000000023
:103DA0000000000000000000000000000000000013
:103DB0000000000000000000000000000000000003
:103DC00000000000000000000000000000000000F3
:103DD00000000000000000000000000000000000E3
:103DE00000000000000000000000000000000000D3
:103DF00000000000000000000000000000000000C3
:103E000000000000000000000000000000000000B2
:043E100000000000AE
:040000050800018965
:00000001FF
